{
  "_format": "hh-sol-artifact-1",
  "contractName": "MyNFT",
  "sourceName": "contracts/nft.sol",
  "abi": [
    {
      "inputs": [
        {
          "internalType": "address",
          "name": "_royaltyReceiverAddress",
          "type": "address"
        }
      ],
      "stateMutability": "nonpayable",
      "type": "constructor"
    },
    {
      "anonymous": false,
      "inputs": [
        {
          "indexed": true,
          "internalType": "address",
          "name": "owner",
          "type": "address"
        },
        {
          "indexed": true,
          "internalType": "address",
          "name": "approved",
          "type": "address"
        },
        {
          "indexed": true,
          "internalType": "uint256",
          "name": "tokenId",
          "type": "uint256"
        }
      ],
      "name": "Approval",
      "type": "event"
    },
    {
      "anonymous": false,
      "inputs": [
        {
          "indexed": true,
          "internalType": "address",
          "name": "owner",
          "type": "address"
        },
        {
          "indexed": true,
          "internalType": "address",
          "name": "operator",
          "type": "address"
        },
        {
          "indexed": false,
          "internalType": "bool",
          "name": "approved",
          "type": "bool"
        }
      ],
      "name": "ApprovalForAll",
      "type": "event"
    },
    {
      "anonymous": false,
      "inputs": [
        {
          "indexed": true,
          "internalType": "address[]",
          "name": "addresses",
          "type": "address[]"
        }
      ],
      "name": "GiftTokens",
      "type": "event"
    },
    {
      "anonymous": false,
      "inputs": [
        {
          "indexed": true,
          "internalType": "address",
          "name": "minter",
          "type": "address"
        },
        {
          "indexed": true,
          "internalType": "uint256",
          "name": "tokens",
          "type": "uint256"
        }
      ],
      "name": "MintPreSale",
      "type": "event"
    },
    {
      "anonymous": false,
      "inputs": [
        {
          "indexed": true,
          "internalType": "address",
          "name": "minter",
          "type": "address"
        },
        {
          "indexed": true,
          "internalType": "uint256",
          "name": "tokens",
          "type": "uint256"
        }
      ],
      "name": "MintPublicSale",
      "type": "event"
    },
    {
      "anonymous": false,
      "inputs": [
        {
          "indexed": true,
          "internalType": "address",
          "name": "previousOwner",
          "type": "address"
        },
        {
          "indexed": true,
          "internalType": "address",
          "name": "newOwner",
          "type": "address"
        }
      ],
      "name": "OwnershipTransferred",
      "type": "event"
    },
    {
      "anonymous": false,
      "inputs": [
        {
          "indexed": true,
          "internalType": "uint256",
          "name": "tokens",
          "type": "uint256"
        }
      ],
      "name": "ReserveTokens",
      "type": "event"
    },
    {
      "anonymous": false,
      "inputs": [
        {
          "indexed": true,
          "internalType": "string",
          "name": "uri",
          "type": "string"
        }
      ],
      "name": "SetBaseURI",
      "type": "event"
    },
    {
      "anonymous": false,
      "inputs": [
        {
          "indexed": true,
          "internalType": "string",
          "name": "uri",
          "type": "string"
        }
      ],
      "name": "SetCollectionURI",
      "type": "event"
    },
    {
      "anonymous": false,
      "inputs": [
        {
          "indexed": true,
          "internalType": "bytes32",
          "name": "root",
          "type": "bytes32"
        }
      ],
      "name": "SetPreSaleMerkleRoot",
      "type": "event"
    },
    {
      "anonymous": false,
      "inputs": [
        {
          "indexed": true,
          "internalType": "address",
          "name": "_address",
          "type": "address"
        }
      ],
      "name": "SetRoyaltyReceiver",
      "type": "event"
    },
    {
      "anonymous": false,
      "inputs": [
        {
          "indexed": true,
          "internalType": "enum MyNFT.SaleState",
          "name": "state",
          "type": "uint8"
        }
      ],
      "name": "SetSaleState",
      "type": "event"
    },
    {
      "anonymous": false,
      "inputs": [
        {
          "indexed": true,
          "internalType": "address",
          "name": "from",
          "type": "address"
        },
        {
          "indexed": true,
          "internalType": "address",
          "name": "to",
          "type": "address"
        },
        {
          "indexed": true,
          "internalType": "uint256",
          "name": "tokenId",
          "type": "uint256"
        }
      ],
      "name": "Transfer",
      "type": "event"
    },
    {
      "anonymous": false,
      "inputs": [
        {
          "indexed": true,
          "internalType": "address",
          "name": "dest",
          "type": "address"
        }
      ],
      "name": "Withdraw",
      "type": "event"
    },
    {
      "anonymous": false,
      "inputs": [
        {
          "indexed": true,
          "internalType": "address",
          "name": "tokenAddress",
          "type": "address"
        },
        {
          "indexed": true,
          "internalType": "address",
          "name": "dest",
          "type": "address"
        }
      ],
      "name": "WithdrawToken",
      "type": "event"
    },
    {
      "inputs": [],
      "name": "MAX_PRE_SALE_MINTS",
      "outputs": [
        {
          "internalType": "uint256",
          "name": "",
          "type": "uint256"
        }
      ],
      "stateMutability": "view",
      "type": "function"
    },
    {
      "inputs": [],
      "name": "MAX_PUBLIC_SALE_MINTS",
      "outputs": [
        {
          "internalType": "uint256",
          "name": "",
          "type": "uint256"
        }
      ],
      "stateMutability": "view",
      "type": "function"
    },
    {
      "inputs": [],
      "name": "MAX_RESERVE_TOKENS",
      "outputs": [
        {
          "internalType": "uint256",
          "name": "",
          "type": "uint256"
        }
      ],
      "stateMutability": "view",
      "type": "function"
    },
    {
      "inputs": [],
      "name": "MAX_TOTAL_SUPPLY",
      "outputs": [
        {
          "internalType": "uint256",
          "name": "",
          "type": "uint256"
        }
      ],
      "stateMutability": "view",
      "type": "function"
    },
    {
      "inputs": [],
      "name": "PRE_SALE_PRICE",
      "outputs": [
        {
          "internalType": "uint256",
          "name": "",
          "type": "uint256"
        }
      ],
      "stateMutability": "view",
      "type": "function"
    },
    {
      "inputs": [],
      "name": "PUBLIC_SALE_PRICE",
      "outputs": [
        {
          "internalType": "uint256",
          "name": "",
          "type": "uint256"
        }
      ],
      "stateMutability": "view",
      "type": "function"
    },
    {
      "inputs": [],
      "name": "ROYALTY_PERCENTAGE",
      "outputs": [
        {
          "internalType": "uint256",
          "name": "",
          "type": "uint256"
        }
      ],
      "stateMutability": "view",
      "type": "function"
    },
    {
      "inputs": [
        {
          "internalType": "address",
          "name": "to",
          "type": "address"
        },
        {
          "internalType": "uint256",
          "name": "tokenId",
          "type": "uint256"
        }
      ],
      "name": "approve",
      "outputs": [],
      "stateMutability": "nonpayable",
      "type": "function"
    },
    {
      "inputs": [
        {
          "internalType": "address",
          "name": "owner",
          "type": "address"
        }
      ],
      "name": "balanceOf",
      "outputs": [
        {
          "internalType": "uint256",
          "name": "",
          "type": "uint256"
        }
      ],
      "stateMutability": "view",
      "type": "function"
    },
    {
      "inputs": [],
      "name": "contractURI",
      "outputs": [
        {
          "internalType": "string",
          "name": "",
          "type": "string"
        }
      ],
      "stateMutability": "view",
      "type": "function"
    },
    {
      "inputs": [
        {
          "internalType": "uint256",
          "name": "tokenId",
          "type": "uint256"
        }
      ],
      "name": "getApproved",
      "outputs": [
        {
          "internalType": "address",
          "name": "",
          "type": "address"
        }
      ],
      "stateMutability": "view",
      "type": "function"
    },
    {
      "inputs": [],
      "name": "getBaseURI",
      "outputs": [
        {
          "internalType": "string",
          "name": "",
          "type": "string"
        }
      ],
      "stateMutability": "view",
      "type": "function"
    },
    {
      "inputs": [],
      "name": "getLastTokenId",
      "outputs": [
        {
          "internalType": "uint256",
          "name": "",
          "type": "uint256"
        }
      ],
      "stateMutability": "view",
      "type": "function"
    },
    {
      "inputs": [
        {
          "internalType": "address[]",
          "name": "addresses",
          "type": "address[]"
        }
      ],
      "name": "giftTokens",
      "outputs": [],
      "stateMutability": "nonpayable",
      "type": "function"
    },
    {
      "inputs": [
        {
          "internalType": "address",
          "name": "owner",
          "type": "address"
        },
        {
          "internalType": "address",
          "name": "operator",
          "type": "address"
        }
      ],
      "name": "isApprovedForAll",
      "outputs": [
        {
          "internalType": "bool",
          "name": "",
          "type": "bool"
        }
      ],
      "stateMutability": "view",
      "type": "function"
    },
    {
      "inputs": [
        {
          "internalType": "uint256",
          "name": "numberOfTokens",
          "type": "uint256"
        },
        {
          "internalType": "bytes32[]",
          "name": "merkleProof",
          "type": "bytes32[]"
        }
      ],
      "name": "mintPreSale",
      "outputs": [],
      "stateMutability": "payable",
      "type": "function"
    },
    {
      "inputs": [
        {
          "internalType": "uint256",
          "name": "numberOfTokens",
          "type": "uint256"
        }
      ],
      "name": "mintPublicSale",
      "outputs": [],
      "stateMutability": "payable",
      "type": "function"
    },
    {
      "inputs": [],
      "name": "name",
      "outputs": [
        {
          "internalType": "string",
          "name": "",
          "type": "string"
        }
      ],
      "stateMutability": "view",
      "type": "function"
    },
    {
      "inputs": [],
      "name": "numReservedTokens",
      "outputs": [
        {
          "internalType": "uint256",
          "name": "",
          "type": "uint256"
        }
      ],
      "stateMutability": "view",
      "type": "function"
    },
    {
      "inputs": [],
      "name": "owner",
      "outputs": [
        {
          "internalType": "address",
          "name": "",
          "type": "address"
        }
      ],
      "stateMutability": "view",
      "type": "function"
    },
    {
      "inputs": [
        {
          "internalType": "uint256",
          "name": "tokenId",
          "type": "uint256"
        }
      ],
      "name": "ownerOf",
      "outputs": [
        {
          "internalType": "address",
          "name": "",
          "type": "address"
        }
      ],
      "stateMutability": "view",
      "type": "function"
    },
    {
      "inputs": [
        {
          "internalType": "address",
          "name": "",
          "type": "address"
        }
      ],
      "name": "preSaleMintCounts",
      "outputs": [
        {
          "internalType": "uint256",
          "name": "",
          "type": "uint256"
        }
      ],
      "stateMutability": "view",
      "type": "function"
    },
    {
      "inputs": [],
      "name": "provenanceHash",
      "outputs": [
        {
          "internalType": "string",
          "name": "",
          "type": "string"
        }
      ],
      "stateMutability": "view",
      "type": "function"
    },
    {
      "inputs": [],
      "name": "renounceOwnership",
      "outputs": [],
      "stateMutability": "nonpayable",
      "type": "function"
    },
    {
      "inputs": [
        {
          "internalType": "uint256",
          "name": "numberOfTokens",
          "type": "uint256"
        }
      ],
      "name": "reserveTokens",
      "outputs": [],
      "stateMutability": "nonpayable",
      "type": "function"
    },
    {
      "inputs": [
        {
          "internalType": "uint256",
          "name": "tokenId",
          "type": "uint256"
        },
        {
          "internalType": "uint256",
          "name": "salePrice",
          "type": "uint256"
        }
      ],
      "name": "royaltyInfo",
      "outputs": [
        {
          "internalType": "address",
          "name": "receiver",
          "type": "address"
        },
        {
          "internalType": "uint256",
          "name": "royaltyAmount",
          "type": "uint256"
        }
      ],
      "stateMutability": "view",
      "type": "function"
    },
    {
      "inputs": [],
      "name": "royaltyReceiverAddress",
      "outputs": [
        {
          "internalType": "address",
          "name": "",
          "type": "address"
        }
      ],
      "stateMutability": "view",
      "type": "function"
    },
    {
      "inputs": [
        {
          "internalType": "address",
          "name": "from",
          "type": "address"
        },
        {
          "internalType": "address",
          "name": "to",
          "type": "address"
        },
        {
          "internalType": "uint256",
          "name": "tokenId",
          "type": "uint256"
        }
      ],
      "name": "safeTransferFrom",
      "outputs": [],
      "stateMutability": "nonpayable",
      "type": "function"
    },
    {
      "inputs": [
        {
          "internalType": "address",
          "name": "from",
          "type": "address"
        },
        {
          "internalType": "address",
          "name": "to",
          "type": "address"
        },
        {
          "internalType": "uint256",
          "name": "tokenId",
          "type": "uint256"
        },
        {
          "internalType": "bytes",
          "name": "data",
          "type": "bytes"
        }
      ],
      "name": "safeTransferFrom",
      "outputs": [],
      "stateMutability": "nonpayable",
      "type": "function"
    },
    {
      "inputs": [],
      "name": "saleState",
      "outputs": [
        {
          "internalType": "enum MyNFT.SaleState",
          "name": "",
          "type": "uint8"
        }
      ],
      "stateMutability": "view",
      "type": "function"
    },
    {
      "inputs": [
        {
          "internalType": "address",
          "name": "operator",
          "type": "address"
        },
        {
          "internalType": "bool",
          "name": "approved",
          "type": "bool"
        }
      ],
      "name": "setApprovalForAll",
      "outputs": [],
      "stateMutability": "nonpayable",
      "type": "function"
    },
    {
      "inputs": [
        {
          "internalType": "string",
          "name": "newbaseURI",
          "type": "string"
        }
      ],
      "name": "setBaseURI",
      "outputs": [],
      "stateMutability": "nonpayable",
      "type": "function"
    },
    {
      "inputs": [
        {
          "internalType": "string",
          "name": "_collectionURI",
          "type": "string"
        }
      ],
      "name": "setCollectionURI",
      "outputs": [],
      "stateMutability": "nonpayable",
      "type": "function"
    },
    {
      "inputs": [],
      "name": "setPreSaleActive",
      "outputs": [],
      "stateMutability": "nonpayable",
      "type": "function"
    },
    {
      "inputs": [
        {
          "internalType": "bytes32",
          "name": "merkleRoot",
          "type": "bytes32"
        }
      ],
      "name": "setPreSaleListMerkleRoot",
      "outputs": [],
      "stateMutability": "nonpayable",
      "type": "function"
    },
    {
      "inputs": [
        {
          "internalType": "string",
          "name": "_hash",
          "type": "string"
        }
      ],
      "name": "setProvenanceHash",
      "outputs": [],
      "stateMutability": "nonpayable",
      "type": "function"
    },
    {
      "inputs": [],
      "name": "setPublicSaleActive",
      "outputs": [],
      "stateMutability": "nonpayable",
      "type": "function"
    },
    {
      "inputs": [
        {
          "internalType": "address",
          "name": "_royaltyReceiverAddress",
          "type": "address"
        }
      ],
      "name": "setRoyaltyReceiverAddress",
      "outputs": [],
      "stateMutability": "nonpayable",
      "type": "function"
    },
    {
      "inputs": [],
      "name": "setSaleInactive",
      "outputs": [],
      "stateMutability": "nonpayable",
      "type": "function"
    },
    {
      "inputs": [
        {
          "internalType": "bytes4",
          "name": "interfaceId",
          "type": "bytes4"
        }
      ],
      "name": "supportsInterface",
      "outputs": [
        {
          "internalType": "bool",
          "name": "",
          "type": "bool"
        }
      ],
      "stateMutability": "view",
      "type": "function"
    },
    {
      "inputs": [],
      "name": "symbol",
      "outputs": [
        {
          "internalType": "string",
          "name": "",
          "type": "string"
        }
      ],
      "stateMutability": "view",
      "type": "function"
    },
    {
      "inputs": [
        {
          "internalType": "uint256",
          "name": "tokenId",
          "type": "uint256"
        }
      ],
      "name": "tokenURI",
      "outputs": [
        {
          "internalType": "string",
          "name": "",
          "type": "string"
        }
      ],
      "stateMutability": "view",
      "type": "function"
    },
    {
      "inputs": [
        {
          "internalType": "address",
          "name": "from",
          "type": "address"
        },
        {
          "internalType": "address",
          "name": "to",
          "type": "address"
        },
        {
          "internalType": "uint256",
          "name": "tokenId",
          "type": "uint256"
        }
      ],
      "name": "transferFrom",
      "outputs": [],
      "stateMutability": "nonpayable",
      "type": "function"
    },
    {
      "inputs": [
        {
          "internalType": "address",
          "name": "newOwner",
          "type": "address"
        }
      ],
      "name": "transferOwnership",
      "outputs": [],
      "stateMutability": "nonpayable",
      "type": "function"
    },
    {
      "inputs": [
        {
          "internalType": "address payable",
          "name": "_dest",
          "type": "address"
        }
      ],
      "name": "withdraw",
      "outputs": [],
      "stateMutability": "nonpayable",
      "type": "function"
    },
    {
      "inputs": [
        {
          "internalType": "address",
          "name": "_tokenAddress",
          "type": "address"
        },
        {
          "internalType": "address",
          "name": "_dest",
          "type": "address"
        }
      ],
      "name": "withdrawToken",
      "outputs": [],
      "stateMutability": "nonpayable",
      "type": "function"
    },
    {
      "stateMutability": "payable",
      "type": "receive"
    }
  ],
  "bytecode": "0x60806040526000600f60006101000a81548160ff0219169083600281111562000051577f4e487b7100000000000000000000000000000000000000000000000000000000600052602160045260246000fd5b02179055503480156200006357600080fd5b5060405162005eeb38038062005eeb83398181016040528101906200008991906200032e565b6040518060400160405280601181526020017f4d79204e465420436f6c6c656374696f6e0000000000000000000000000000008152506040518060400160405280600581526020017f4d594e465400000000000000000000000000000000000000000000000000000081525081600090805190602001906200010d92919062000267565b5080600190805190602001906200012692919062000267565b505050620001496200013d6200019960201b60201c565b620001a160201b60201c565b600160078190555080600f60016101000a81548173ffffffffffffffffffffffffffffffffffffffff021916908373ffffffffffffffffffffffffffffffffffffffff160217905550506200040d565b600033905090565b6000600660009054906101000a900473ffffffffffffffffffffffffffffffffffffffff16905081600660006101000a81548173ffffffffffffffffffffffffffffffffffffffff021916908373ffffffffffffffffffffffffffffffffffffffff1602179055508173ffffffffffffffffffffffffffffffffffffffff168173ffffffffffffffffffffffffffffffffffffffff167f8be0079c531659141344cd1fd0a4f28419497f9722a3daafe3b4186f6b6457e060405160405180910390a35050565b82805462000275906200038e565b90600052602060002090601f016020900481019282620002995760008555620002e5565b82601f10620002b457805160ff1916838001178555620002e5565b82800160010185558215620002e5579182015b82811115620002e4578251825591602001919060010190620002c7565b5b509050620002f49190620002f8565b5090565b5b8082111562000313576000816000905550600101620002f9565b5090565b6000815190506200032881620003f3565b92915050565b6000602082840312156200034157600080fd5b6000620003518482850162000317565b91505092915050565b600062000367826200036e565b9050919050565b600073ffffffffffffffffffffffffffffffffffffffff82169050919050565b60006002820490506001821680620003a757607f821691505b60208210811415620003be57620003bd620003c4565b5b50919050565b7f4e487b7100000000000000000000000000000000000000000000000000000000600052602260045260246000fd5b620003fe816200035a565b81146200040a57600080fd5b50565b615ace806200041d6000396000f3fe6080604052600436106102815760003560e01c8063603f4d521161014f5780639dd85f17116100c1578063c87b56dd1161007a578063c87b56dd1461092a578063d031370b14610967578063dc7eda7d14610990578063e8a3d485146109bb578063e985e9c5146109e6578063f2fde38b14610a2357610288565b80639dd85f171461083d5780639e6b2c5b14610868578063a22cb46514610884578063af42d82d146108ad578063b88d4fde146108d6578063c6ab67a3146108ff57610288565b8063715018a611610113578063715018a61461073f57806383c4c00d146107565780638a8fe819146107815780638b4f8463146107be5780638da5cb5b146107e757806395d89b411461081257610288565b8063603f4d52146106445780636352211e1461066f57806363ff5e17146106ac57806370a08231146106d7578063714c53981461071457610288565b80632639f460116101f3578063440754d8116101ac578063440754d814610557578063463b08db14610580578063508881c1146105ab57806351cff8d9146105d657806355f804b3146105ff5780635a5e5d581461062857610288565b80632639f4601461045c5780632a55205a1461048557806333039d3d146104c35780633aeac4e1146104ee5780633e11ab3f1461051757806342842e0e1461052e57610288565b80630cd6fba9116102455780630cd6fba914610386578063109695231461039d57806311e3dbca146103c6578063193402bb146103f157806320fe418a1461041c57806323b872dd1461043357610288565b806301ffc9a71461028d57806306fdde03146102ca57806307e89ec0146102f5578063081812fc14610320578063095ea7b31461035d57610288565b3661028857005b600080fd5b34801561029957600080fd5b506102b460048036038101906102af91906140ba565b610a4c565b6040516102c19190614a43565b60405180910390f35b3480156102d657600080fd5b506102df610ac6565b6040516102ec9190614a79565b60405180910390f35b34801561030157600080fd5b5061030a610b58565b6040516103179190614e3b565b60405180910390f35b34801561032c57600080fd5b5061034760048036038101906103429190614192565b610b63565b60405161035491906149b3565b60405180910390f35b34801561036957600080fd5b50610384600480360381019061037f9190613fe7565b610ba9565b005b34801561039257600080fd5b5061039b610cc1565b005b3480156103a957600080fd5b506103c460048036038101906103bf919061410c565b610d82565b005b3480156103d257600080fd5b506103db610da0565b6040516103e89190614e3b565b60405180910390f35b3480156103fd57600080fd5b50610406610da6565b6040516104139190614e3b565b60405180910390f35b34801561042857600080fd5b50610431610db1565b005b34801561043f57600080fd5b5061045a60048036038101906104559190613ee1565b610e72565b005b34801561046857600080fd5b50610483600480360381019061047e9190614151565b610ed2565b005b34801561049157600080fd5b506104ac60048036038101906104a7919061423c565b610f36565b6040516104ba929190614a1a565b60405180910390f35b3480156104cf57600080fd5b506104d8610fca565b6040516104e59190614e3b565b60405180910390f35b3480156104fa57600080fd5b5061051560048036038101906105109190613ea5565b610fd0565b005b34801561052357600080fd5b5061052c6110cf565b005b34801561053a57600080fd5b5061055560048036038101906105509190613ee1565b61118f565b005b34801561056357600080fd5b5061057e60048036038101906105799190614023565b6111af565b005b34801561058c57600080fd5b506105956113a4565b6040516105a29190614e3b565b60405180910390f35b3480156105b757600080fd5b506105c06113a9565b6040516105cd9190614e3b565b60405180910390f35b3480156105e257600080fd5b506105fd60048036038101906105f89190613e7c565b6113ae565b005b34801561060b57600080fd5b5061062660048036038101906106219190614151565b61142b565b005b610642600480360381019061063d9190614192565b61148f565b005b34801561065057600080fd5b506106596116e9565b6040516106669190614a5e565b60405180910390f35b34801561067b57600080fd5b5061069660048036038101906106919190614192565b6116fc565b6040516106a391906149b3565b60405180910390f35b3480156106b857600080fd5b506106c1611783565b6040516106ce9190614e3b565b60405180910390f35b3480156106e357600080fd5b506106fe60048036038101906106f99190613e53565b611788565b60405161070b9190614e3b565b60405180910390f35b34801561072057600080fd5b50610729611840565b6040516107369190614a79565b60405180910390f35b34801561074b57600080fd5b506107546118d2565b005b34801561076257600080fd5b5061076b6118e6565b6040516107789190614e3b565b60405180910390f35b34801561078d57600080fd5b506107a860048036038101906107a39190613e53565b6118f7565b6040516107b59190614e3b565b60405180910390f35b3480156107ca57600080fd5b506107e560048036038101906107e09190613e53565b61190f565b005b3480156107f357600080fd5b506107fc61199e565b60405161080991906149b3565b60405180910390f35b34801561081e57600080fd5b506108276119c8565b6040516108349190614a79565b60405180910390f35b34801561084957600080fd5b50610852611a5a565b60405161085f9190614e3b565b60405180910390f35b610882600480360381019061087d91906141e4565b611a5f565b005b34801561089057600080fd5b506108ab60048036038101906108a69190613fab565b611e4b565b005b3480156108b957600080fd5b506108d460048036038101906108cf9190614091565b611e61565b005b3480156108e257600080fd5b506108fd60048036038101906108f89190613f30565b611ea0565b005b34801561090b57600080fd5b50610914611f02565b6040516109219190614a79565b60405180910390f35b34801561093657600080fd5b50610951600480360381019061094c9190614192565b611f90565b60405161095e9190614a79565b60405180910390f35b34801561097357600080fd5b5061098e60048036038101906109899190614192565b61200e565b005b34801561099c57600080fd5b506109a561214b565b6040516109b291906149b3565b60405180910390f35b3480156109c757600080fd5b506109d0612171565b6040516109dd9190614a79565b60405180910390f35b3480156109f257600080fd5b50610a0d6004803603810190610a089190613ea5565b612203565b604051610a1a9190614a43565b60405180910390f35b348015610a2f57600080fd5b50610a4a6004803603810190610a459190613e53565b612297565b005b60007f2a55205a000000000000000000000000000000000000000000000000000000007bffffffffffffffffffffffffffffffffffffffffffffffffffffffff1916827bffffffffffffffffffffffffffffffffffffffffffffffffffffffff19161480610abf5750610abe8261231b565b5b9050919050565b606060008054610ad590615185565b80601f0160208091040260200160405190810160405280929190818152602001828054610b0190615185565b8015610b4e5780601f10610b2357610100808354040283529160200191610b4e565b820191906000526020600020905b815481529060010190602001808311610b3157829003601f168201915b5050505050905090565b66470de4df82000081565b6000610b6e826123fd565b6004600083815260200190815260200160002060009054906101000a900473ffffffffffffffffffffffffffffffffffffffff169050919050565b6000610bb4826116fc565b90508073ffffffffffffffffffffffffffffffffffffffff168373ffffffffffffffffffffffffffffffffffffffff161415610c25576040517f08c379a0000000000000000000000000000000000000000000000000000000008152600401610c1c90614d1b565b60405180910390fd5b8073ffffffffffffffffffffffffffffffffffffffff16610c44612448565b73ffffffffffffffffffffffffffffffffffffffff161480610c735750610c7281610c6d612448565b612203565b5b610cb2576040517f08c379a0000000000000000000000000000000000000000000000000000000008152600401610ca990614d3b565b60405180910390fd5b610cbc8383612450565b505050565b610cc9612509565b6000600f60006101000a81548160ff02191690836002811115610d15577f4e487b7100000000000000000000000000000000000000000000000000000000600052602160045260246000fd5b021790555060006002811115610d54577f4e487b7100000000000000000000000000000000000000000000000000000000600052602160045260246000fd5b7f784851bf4f56ebb482b14174b5fcc43c006ca236a47dcb14d8eedcf0eddc503e60405160405180910390a2565b610d8a612509565b8181600b9190610d9b929190613abf565b505050565b600c5481565b662386f26fc1000081565b610db9612509565b6001600f60006101000a81548160ff02191690836002811115610e05577f4e487b7100000000000000000000000000000000000000000000000000000000600052602160045260246000fd5b021790555060016002811115610e44577f4e487b7100000000000000000000000000000000000000000000000000000000600052602160045260246000fd5b7f784851bf4f56ebb482b14174b5fcc43c006ca236a47dcb14d8eedcf0eddc503e60405160405180910390a2565b610e83610e7d612448565b82612587565b610ec2576040517f08c379a0000000000000000000000000000000000000000000000000000000008152600401610eb990614abb565b60405180910390fd5b610ecd83838361261c565b505050565b610eda612509565b80600a9080519060200190610ef0929190613b45565b5080604051610eff919061494d565b60405180910390207ff88079580916acca3afc2e0f6ce909bab62d70f38e856286ffd15925be4fd9cc60405160405180910390a250565b60008083610f4381612916565b610f82576040517f08c379a0000000000000000000000000000000000000000000000000000000008152600401610f7990614c7b565b60405180910390fd5b600f60019054906101000a900473ffffffffffffffffffffffffffffffffffffffff166064600a86610fb49190615000565b610fbe9190614fcf565b92509250509250929050565b6103e881565b610fd8612509565b60008273ffffffffffffffffffffffffffffffffffffffff166370a08231306040518263ffffffff1660e01b815260040161101391906149b3565b60206040518083038186803b15801561102b57600080fd5b505afa15801561103f573d6000803e3d6000fd5b505050506040513d601f19601f8201168201806040525081019061106391906141bb565b9050611070838383612957565b8173ffffffffffffffffffffffffffffffffffffffff168373ffffffffffffffffffffffffffffffffffffffff167fce9ecd720079c00c86716fadb783ea8b0577f02c0f55b98d8a4a86ecdcb7918b60405160405180910390a3505050565b6110d7612509565b6002600f60006101000a81548160ff02191690836002811115611123577f4e487b7100000000000000000000000000000000000000000000000000000000600052602160045260246000fd5b0217905550600280811115611161577f4e487b7100000000000000000000000000000000000000000000000000000000600052602160045260246000fd5b7f784851bf4f56ebb482b14174b5fcc43c006ca236a47dcb14d8eedcf0eddc503e60405160405180910390a2565b6111aa83838360405180602001604052806000815250611ea0565b505050565b6111b76129dd565b6111bf612509565b81819050600081600c546111d39190614f79565b1115611214576040517f08c379a000000000000000000000000000000000000000000000000000000000815260040161120b90614dbb565b60405180910390fd5b6103e8816112226008612a2d565b61122c9190614f79565b111561126d576040517f08c379a000000000000000000000000000000000000000000000000000000000815260040161126490614c3b565b60405180910390fd5b8282600082829050116112b5576040517f08c379a00000000000000000000000000000000000000000000000000000000081526004016112ac90614e1b565b60405180910390fd5b84849050600c60008282546112ca9190614f79565b9250508190555060005b858590508110156113505761133d86868381811061131b577f4e487b7100000000000000000000000000000000000000000000000000000000600052603260045260246000fd5b90506020020160208101906113309190613e53565b611338612a3b565b612a56565b8080611348906151e8565b9150506112d4565b50848460405161136192919061491d565b60405180910390207f60f9e182d4e9c17b0b89f72aca3c084950624d5c97740ab7c37368ed9c1b561960405160405180910390a25050506113a0612a74565b5050565b600a81565b600581565b6113b6612509565b60004790506113e4818373ffffffffffffffffffffffffffffffffffffffff16612a7e90919063ffffffff16565b8173ffffffffffffffffffffffffffffffffffffffff167ff67611512e0a2d90c96fd3f08dca4971bc45fba9dc679eabe839a32abbe58a8e60405160405180910390a25050565b611433612509565b8060099080519060200190611449929190613b45565b5080604051611458919061494d565b60405180910390207f23c8c9488efebfd474e85a7956de6f39b17c7ab88502d42a623db2d8e382bbaa60405160405180910390a250565b6114976129dd565b6002808111156114d0577f4e487b7100000000000000000000000000000000000000000000000000000000600052602160045260246000fd5b600f60009054906101000a900460ff166002811115611518577f4e487b7100000000000000000000000000000000000000000000000000000000600052602160045260246000fd5b14611558576040517f08c379a000000000000000000000000000000000000000000000000000000000815260040161154f90614dfb565b60405180910390fd5b66470de4df8200008134818361156e9190615000565b146115ae576040517f08c379a00000000000000000000000000000000000000000000000000000000081526004016115a590614d9b565b60405180910390fd5b82600c5460006103e86115c1919061505a565b6115cb9190614f79565b816115d66008612a2d565b6115e09190614f79565b1115611621576040517f08c379a000000000000000000000000000000000000000000000000000000000815260040161161890614c3b565b60405180910390fd5b836005811115611666576040517f08c379a000000000000000000000000000000000000000000000000000000000815260040161165d90614bdb565b60405180910390fd5b60005b85811015611695576116823361167d612a3b565b612a56565b808061168d906151e8565b915050611669565b50843373ffffffffffffffffffffffffffffffffffffffff167fe0e3b14a4f3f053af472cf2a7c31ae0e87fd170dbc7a89466d1c776952bd173760405160405180910390a3505050506116e6612a74565b50565b600f60009054906101000a900460ff1681565b60008061170883612b72565b9050600073ffffffffffffffffffffffffffffffffffffffff168173ffffffffffffffffffffffffffffffffffffffff16141561177a576040517f08c379a000000000000000000000000000000000000000000000000000000000815260040161177190614cfb565b60405180910390fd5b80915050919050565b600081565b60008073ffffffffffffffffffffffffffffffffffffffff168273ffffffffffffffffffffffffffffffffffffffff1614156117f9576040517f08c379a00000000000000000000000000000000000000000000000000000000081526004016117f090614c5b565b60405180910390fd5b600360008373ffffffffffffffffffffffffffffffffffffffff1673ffffffffffffffffffffffffffffffffffffffff168152602001908152602001600020549050919050565b60606009805461184f90615185565b80601f016020809104026020016040519081016040528092919081815260200182805461187b90615185565b80156118c85780601f1061189d576101008083540402835291602001916118c8565b820191906000526020600020905b8154815290600101906020018083116118ab57829003601f168201915b5050505050905090565b6118da612509565b6118e46000612baf565b565b60006118f26008612a2d565b905090565b600d6020528060005260406000206000915090505481565b611917612509565b80600f60016101000a81548173ffffffffffffffffffffffffffffffffffffffff021916908373ffffffffffffffffffffffffffffffffffffffff1602179055508073ffffffffffffffffffffffffffffffffffffffff167f1b7503b18e6e011fd6a493067321794279eb00b8bad2baefa1d771b2e98f216c60405160405180910390a250565b6000600660009054906101000a900473ffffffffffffffffffffffffffffffffffffffff16905090565b6060600180546119d790615185565b80601f0160208091040260200160405190810160405280929190818152602001828054611a0390615185565b8015611a505780601f10611a2557610100808354040283529160200191611a50565b820191906000526020600020905b815481529060010190602001808311611a3357829003601f168201915b5050505050905090565b600381565b611a676129dd565b60016002811115611aa1577f4e487b7100000000000000000000000000000000000000000000000000000000600052602160045260246000fd5b600f60009054906101000a900460ff166002811115611ae9577f4e487b7100000000000000000000000000000000000000000000000000000000600052602160045260246000fd5b14611b29576040517f08c379a0000000000000000000000000000000000000000000000000000000008152600401611b2090614cbb565b60405180910390fd5b662386f26fc1000083348183611b3f9190615000565b14611b7f576040517f08c379a0000000000000000000000000000000000000000000000000000000008152600401611b7690614d9b565b60405180910390fd5b84600c5460006103e8611b92919061505a565b611b9c9190614f79565b81611ba76008612a2d565b611bb19190614f79565b1115611bf2576040517f08c379a0000000000000000000000000000000000000000000000000000000008152600401611be990614c3b565b60405180910390fd5b8484611c68828280806020026020016040519081016040528093929190818152602001838360200280828437600081840152601f19601f82011690508083019250505050505050600e5433604051602001611c4d9190614902565b60405160208183030381529060405280519060200120612c75565b611ca7576040517f08c379a0000000000000000000000000000000000000000000000000000000008152600401611c9e90614b5b565b60405180910390fd5b87600381600d60003373ffffffffffffffffffffffffffffffffffffffff1673ffffffffffffffffffffffffffffffffffffffff16815260200190815260200160002054611cf59190614f79565b1115611d36576040517f08c379a0000000000000000000000000000000000000000000000000000000008152600401611d2d90614a9b565b60405180910390fd5b88600d60003373ffffffffffffffffffffffffffffffffffffffff1673ffffffffffffffffffffffffffffffffffffffff16815260200190815260200160002054611d819190614f79565b600d60003373ffffffffffffffffffffffffffffffffffffffff1673ffffffffffffffffffffffffffffffffffffffff1681526020019081526020016000208190555060005b89811015611df357611de033611ddb612a3b565b612a56565b8080611deb906151e8565b915050611dc7565b50883373ffffffffffffffffffffffffffffffffffffffff167f7ecbc6c2508739b8cb9f4ce243de4345253602f1ea2f8ba5e0ac26f1eecc63aa60405160405180910390a3505050505050611e46612a74565b505050565b611e5d611e56612448565b8383612c8c565b5050565b611e69612509565b80600e81905550807f2965d6e68e4e35cf06fce0f92ff1ee28e7d29bde2bf6b0557d8f22e78171432d60405160405180910390a250565b611eb1611eab612448565b83612587565b611ef0576040517f08c379a0000000000000000000000000000000000000000000000000000000008152600401611ee790614abb565b60405180910390fd5b611efc84848484612df9565b50505050565b600b8054611f0f90615185565b80601f0160208091040260200160405190810160405280929190818152602001828054611f3b90615185565b8015611f885780601f10611f5d57610100808354040283529160200191611f88565b820191906000526020600020905b815481529060010190602001808311611f6b57829003601f168201915b505050505081565b606081611f9c81612916565b611fdb576040517f08c379a0000000000000000000000000000000000000000000000000000000008152600401611fd290614c7b565b60405180910390fd5b6009611fe684612e55565b604051602001611ff7929190614964565b604051602081830303815290604052915050919050565b6120166129dd565b61201e612509565b80600081600c5461202f9190614f79565b1115612070576040517f08c379a000000000000000000000000000000000000000000000000000000000815260040161206790614dbb565b60405180910390fd5b6103e88161207e6008612a2d565b6120889190614f79565b11156120c9576040517f08c379a00000000000000000000000000000000000000000000000000000000081526004016120c090614c3b565b60405180910390fd5b81600c60008282546120db9190614f79565b9250508190555060005b82811015612111576120fe336120f9612a3b565b612a56565b8080612109906151e8565b9150506120e5565b50817fa3fef113f707ae04eb95a86404ce54b1b062eee16db52dc37266dbdd1cbaef1160405160405180910390a250612148612a74565b50565b600f60019054906101000a900473ffffffffffffffffffffffffffffffffffffffff1681565b6060600a805461218090615185565b80601f01602080910402602001604051908101604052809291908181526020018280546121ac90615185565b80156121f95780601f106121ce576101008083540402835291602001916121f9565b820191906000526020600020905b8154815290600101906020018083116121dc57829003601f168201915b5050505050905090565b6000600560008473ffffffffffffffffffffffffffffffffffffffff1673ffffffffffffffffffffffffffffffffffffffff16815260200190815260200160002060008373ffffffffffffffffffffffffffffffffffffffff1673ffffffffffffffffffffffffffffffffffffffff16815260200190815260200160002060009054906101000a900460ff16905092915050565b61229f612509565b600073ffffffffffffffffffffffffffffffffffffffff168173ffffffffffffffffffffffffffffffffffffffff16141561230f576040517f08c379a000000000000000000000000000000000000000000000000000000000815260040161230690614afb565b60405180910390fd5b61231881612baf565b50565b60007f80ac58cd000000000000000000000000000000000000000000000000000000007bffffffffffffffffffffffffffffffffffffffffffffffffffffffff1916827bffffffffffffffffffffffffffffffffffffffffffffffffffffffff191614806123e657507f5b5e139f000000000000000000000000000000000000000000000000000000007bffffffffffffffffffffffffffffffffffffffffffffffffffffffff1916827bffffffffffffffffffffffffffffffffffffffffffffffffffffffff1916145b806123f657506123f582612f79565b5b9050919050565b61240681612916565b612445576040517f08c379a000000000000000000000000000000000000000000000000000000000815260040161243c90614cfb565b60405180910390fd5b50565b600033905090565b816004600083815260200190815260200160002060006101000a81548173ffffffffffffffffffffffffffffffffffffffff021916908373ffffffffffffffffffffffffffffffffffffffff160217905550808273ffffffffffffffffffffffffffffffffffffffff166124c3836116fc565b73ffffffffffffffffffffffffffffffffffffffff167f8c5be1e5ebec7d5bd14f71427d1e84f3dd0314c0f7b2291e5b200ac8c7c3b92560405160405180910390a45050565b612511612448565b73ffffffffffffffffffffffffffffffffffffffff1661252f61199e565b73ffffffffffffffffffffffffffffffffffffffff1614612585576040517f08c379a000000000000000000000000000000000000000000000000000000000815260040161257c90614cdb565b60405180910390fd5b565b600080612593836116fc565b90508073ffffffffffffffffffffffffffffffffffffffff168473ffffffffffffffffffffffffffffffffffffffff1614806125d557506125d48185612203565b5b8061261357508373ffffffffffffffffffffffffffffffffffffffff166125fb84610b63565b73ffffffffffffffffffffffffffffffffffffffff16145b91505092915050565b8273ffffffffffffffffffffffffffffffffffffffff1661263c826116fc565b73ffffffffffffffffffffffffffffffffffffffff1614612692576040517f08c379a000000000000000000000000000000000000000000000000000000000815260040161268990614b1b565b60405180910390fd5b600073ffffffffffffffffffffffffffffffffffffffff168273ffffffffffffffffffffffffffffffffffffffff161415612702576040517f08c379a00000000000000000000000000000000000000000000000000000000081526004016126f990614b7b565b60405180910390fd5b61270f8383836001612fe3565b8273ffffffffffffffffffffffffffffffffffffffff1661272f826116fc565b73ffffffffffffffffffffffffffffffffffffffff1614612785576040517f08c379a000000000000000000000000000000000000000000000000000000000815260040161277c90614b1b565b60405180910390fd5b6004600082815260200190815260200160002060006101000a81549073ffffffffffffffffffffffffffffffffffffffff02191690556001600360008573ffffffffffffffffffffffffffffffffffffffff1673ffffffffffffffffffffffffffffffffffffffff168152602001908152602001600020600082825403925050819055506001600360008473ffffffffffffffffffffffffffffffffffffffff1673ffffffffffffffffffffffffffffffffffffffff16815260200190815260200160002060008282540192505081905550816002600083815260200190815260200160002060006101000a81548173ffffffffffffffffffffffffffffffffffffffff021916908373ffffffffffffffffffffffffffffffffffffffff160217905550808273ffffffffffffffffffffffffffffffffffffffff168473ffffffffffffffffffffffffffffffffffffffff167fddf252ad1be2c89b69c2b068fc378daa952ba7f163c4a11628f55a4df523b3ef60405160405180910390a46129118383836001613109565b505050565b60008073ffffffffffffffffffffffffffffffffffffffff1661293883612b72565b73ffffffffffffffffffffffffffffffffffffffff1614159050919050565b6129d88363a9059cbb60e01b8484604051602401612976929190614a1a565b604051602081830303815290604052907bffffffffffffffffffffffffffffffffffffffffffffffffffffffff19166020820180517bffffffffffffffffffffffffffffffffffffffffffffffffffffffff838183161783525050505061310f565b505050565b60026007541415612a23576040517f08c379a0000000000000000000000000000000000000000000000000000000008152600401612a1a90614ddb565b60405180910390fd5b6002600781905550565b600081600001549050919050565b6000612a4760086131d6565b612a516008612a2d565b905090565b612a708282604051806020016040528060008152506131ec565b5050565b6001600781905550565b80471015612ac1576040517f08c379a0000000000000000000000000000000000000000000000000000000008152600401612ab890614bfb565b60405180910390fd5b60008273ffffffffffffffffffffffffffffffffffffffff1682604051612ae79061499e565b60006040518083038185875af1925050503d8060008114612b24576040519150601f19603f3d011682016040523d82523d6000602084013e612b29565b606091505b5050905080612b6d576040517f08c379a0000000000000000000000000000000000000000000000000000000008152600401612b6490614bbb565b60405180910390fd5b505050565b60006002600083815260200190815260200160002060009054906101000a900473ffffffffffffffffffffffffffffffffffffffff169050919050565b6000600660009054906101000a900473ffffffffffffffffffffffffffffffffffffffff16905081600660006101000a81548173ffffffffffffffffffffffffffffffffffffffff021916908373ffffffffffffffffffffffffffffffffffffffff1602179055508173ffffffffffffffffffffffffffffffffffffffff168173ffffffffffffffffffffffffffffffffffffffff167f8be0079c531659141344cd1fd0a4f28419497f9722a3daafe3b4186f6b6457e060405160405180910390a35050565b600082612c828584613247565b1490509392505050565b8173ffffffffffffffffffffffffffffffffffffffff168373ffffffffffffffffffffffffffffffffffffffff161415612cfb576040517f08c379a0000000000000000000000000000000000000000000000000000000008152600401612cf290614b9b565b60405180910390fd5b80600560008573ffffffffffffffffffffffffffffffffffffffff1673ffffffffffffffffffffffffffffffffffffffff16815260200190815260200160002060008473ffffffffffffffffffffffffffffffffffffffff1673ffffffffffffffffffffffffffffffffffffffff16815260200190815260200160002060006101000a81548160ff0219169083151502179055508173ffffffffffffffffffffffffffffffffffffffff168373ffffffffffffffffffffffffffffffffffffffff167f17307eab39ab6107e8899845ad3d59bd9653f200f220920489ca2b5937696c3183604051612dec9190614a43565b60405180910390a3505050565b612e0484848461261c565b612e10848484846132c3565b612e4f576040517f08c379a0000000000000000000000000000000000000000000000000000000008152600401612e4690614adb565b60405180910390fd5b50505050565b606060006001612e648461345a565b01905060008167ffffffffffffffff811115612ea9577f4e487b7100000000000000000000000000000000000000000000000000000000600052604160045260246000fd5b6040519080825280601f01601f191660200182016040528015612edb5781602001600182028036833780820191505090505b509050600082602001820190505b600115612f6e578080600190039150507f3031323334353637383961626364656600000000000000000000000000000000600a86061a8153600a8581612f58577f4e487b7100000000000000000000000000000000000000000000000000000000600052601260045260246000fd5b0494506000851415612f6957612f6e565b612ee9565b819350505050919050565b60007f01ffc9a7000000000000000000000000000000000000000000000000000000007bffffffffffffffffffffffffffffffffffffffffffffffffffffffff1916827bffffffffffffffffffffffffffffffffffffffffffffffffffffffff1916149050919050565b600181111561310357600073ffffffffffffffffffffffffffffffffffffffff168473ffffffffffffffffffffffffffffffffffffffff16146130775780600360008673ffffffffffffffffffffffffffffffffffffffff1673ffffffffffffffffffffffffffffffffffffffff168152602001908152602001600020600082825461306f919061505a565b925050819055505b600073ffffffffffffffffffffffffffffffffffffffff168373ffffffffffffffffffffffffffffffffffffffff16146131025780600360008573ffffffffffffffffffffffffffffffffffffffff1673ffffffffffffffffffffffffffffffffffffffff16815260200190815260200160002060008282546130fa9190614f79565b925050819055505b5b50505050565b50505050565b6000613171826040518060400160405280602081526020017f5361666545524332303a206c6f772d6c6576656c2063616c6c206661696c65648152508573ffffffffffffffffffffffffffffffffffffffff166136919092919063ffffffff16565b90506000815111156131d157808060200190518101906131919190614068565b6131d0576040517f08c379a00000000000000000000000000000000000000000000000000000000081526004016131c790614d7b565b60405180910390fd5b5b505050565b6001816000016000828254019250508190555050565b6131f683836136a9565b61320360008484846132c3565b613242576040517f08c379a000000000000000000000000000000000000000000000000000000000815260040161323990614adb565b60405180910390fd5b505050565b60008082905060005b84518110156132b8576132a382868381518110613296577f4e487b7100000000000000000000000000000000000000000000000000000000600052603260045260246000fd5b60200260200101516138c7565b915080806132b0906151e8565b915050613250565b508091505092915050565b60006132e48473ffffffffffffffffffffffffffffffffffffffff166138f2565b1561344d578373ffffffffffffffffffffffffffffffffffffffff1663150b7a0261330d612448565b8786866040518563ffffffff1660e01b815260040161332f94939291906149ce565b602060405180830381600087803b15801561334957600080fd5b505af192505050801561337a57506040513d601f19601f8201168201806040525081019061337791906140e3565b60015b6133fd573d80600081146133aa576040519150601f19603f3d011682016040523d82523d6000602084013e6133af565b606091505b506000815114156133f5576040517f08c379a00000000000000000000000000000000000000000000000000000000081526004016133ec90614adb565b60405180910390fd5b805181602001fd5b63150b7a0260e01b7bffffffffffffffffffffffffffffffffffffffffffffffffffffffff1916817bffffffffffffffffffffffffffffffffffffffffffffffffffffffff191614915050613452565b600190505b949350505050565b600080600090507a184f03e93ff9f4daa797ed6e38ed64bf6a1f01000000000000000083106134de577a184f03e93ff9f4daa797ed6e38ed64bf6a1f01000000000000000083816134d4577f4e487b7100000000000000000000000000000000000000000000000000000000600052601260045260246000fd5b0492506040810190505b6d04ee2d6d415b85acef81000000008310613541576d04ee2d6d415b85acef81000000008381613537577f4e487b7100000000000000000000000000000000000000000000000000000000600052601260045260246000fd5b0492506020810190505b662386f26fc10000831061359657662386f26fc10000838161358c577f4e487b7100000000000000000000000000000000000000000000000000000000600052601260045260246000fd5b0492506010810190505b6305f5e10083106135e5576305f5e10083816135db577f4e487b7100000000000000000000000000000000000000000000000000000000600052601260045260246000fd5b0492506008810190505b6127108310613630576127108381613626577f4e487b7100000000000000000000000000000000000000000000000000000000600052601260045260246000fd5b0492506004810190505b60648310613679576064838161366f577f4e487b7100000000000000000000000000000000000000000000000000000000600052601260045260246000fd5b0492506002810190505b600a8310613688576001810190505b80915050919050565b60606136a08484600085613915565b90509392505050565b600073ffffffffffffffffffffffffffffffffffffffff168273ffffffffffffffffffffffffffffffffffffffff161415613719576040517f08c379a000000000000000000000000000000000000000000000000000000000815260040161371090614c9b565b60405180910390fd5b61372281612916565b15613762576040517f08c379a000000000000000000000000000000000000000000000000000000000815260040161375990614b3b565b60405180910390fd5b613770600083836001612fe3565b61377981612916565b156137b9576040517f08c379a00000000000000000000000000000000000000000000000000000000081526004016137b090614b3b565b60405180910390fd5b6001600360008473ffffffffffffffffffffffffffffffffffffffff1673ffffffffffffffffffffffffffffffffffffffff16815260200190815260200160002060008282540192505081905550816002600083815260200190815260200160002060006101000a81548173ffffffffffffffffffffffffffffffffffffffff021916908373ffffffffffffffffffffffffffffffffffffffff160217905550808273ffffffffffffffffffffffffffffffffffffffff16600073ffffffffffffffffffffffffffffffffffffffff167fddf252ad1be2c89b69c2b068fc378daa952ba7f163c4a11628f55a4df523b3ef60405160405180910390a46138c3600083836001613109565b5050565b60008183106138df576138da82846139e2565b6138ea565b6138e983836139e2565b5b905092915050565b6000808273ffffffffffffffffffffffffffffffffffffffff163b119050919050565b60608247101561395a576040517f08c379a000000000000000000000000000000000000000000000000000000000815260040161395190614c1b565b60405180910390fd5b6000808673ffffffffffffffffffffffffffffffffffffffff1685876040516139839190614936565b60006040518083038185875af1925050503d80600081146139c0576040519150601f19603f3d011682016040523d82523d6000602084013e6139c5565b606091505b50915091506139d6878383876139f9565b92505050949350505050565b600082600052816020526040600020905092915050565b60608315613a5c57600083511415613a5457613a14856138f2565b613a53576040517f08c379a0000000000000000000000000000000000000000000000000000000008152600401613a4a90614d5b565b60405180910390fd5b5b829050613a67565b613a668383613a6f565b5b949350505050565b600082511115613a825781518083602001fd5b806040517f08c379a0000000000000000000000000000000000000000000000000000000008152600401613ab69190614a79565b60405180910390fd5b828054613acb90615185565b90600052602060002090601f016020900481019282613aed5760008555613b34565b82601f10613b0657803560ff1916838001178555613b34565b82800160010185558215613b34579182015b82811115613b33578235825591602001919060010190613b18565b5b509050613b419190613bcb565b5090565b828054613b5190615185565b90600052602060002090601f016020900481019282613b735760008555613bba565b82601f10613b8c57805160ff1916838001178555613bba565b82800160010185558215613bba579182015b82811115613bb9578251825591602001919060010190613b9e565b5b509050613bc79190613bcb565b5090565b5b80821115613be4576000816000905550600101613bcc565b5090565b6000613bfb613bf684614e7b565b614e56565b905082815260208101848484011115613c1357600080fd5b613c1e848285615143565b509392505050565b6000613c39613c3484614eac565b614e56565b905082815260208101848484011115613c5157600080fd5b613c5c848285615143565b509392505050565b600081359050613c7381615a0e565b92915050565b600081359050613c8881615a25565b92915050565b60008083601f840112613ca057600080fd5b8235905067ffffffffffffffff811115613cb957600080fd5b602083019150836020820283011115613cd157600080fd5b9250929050565b60008083601f840112613cea57600080fd5b8235905067ffffffffffffffff811115613d0357600080fd5b602083019150836020820283011115613d1b57600080fd5b9250929050565b600081359050613d3181615a3c565b92915050565b600081519050613d4681615a3c565b92915050565b600081359050613d5b81615a53565b92915050565b600081359050613d7081615a6a565b92915050565b600081519050613d8581615a6a565b92915050565b600082601f830112613d9c57600080fd5b8135613dac848260208601613be8565b91505092915050565b60008083601f840112613dc757600080fd5b8235905067ffffffffffffffff811115613de057600080fd5b602083019150836001820283011115613df857600080fd5b9250929050565b600082601f830112613e1057600080fd5b8135613e20848260208601613c26565b91505092915050565b600081359050613e3881615a81565b92915050565b600081519050613e4d81615a81565b92915050565b600060208284031215613e6557600080fd5b6000613e7384828501613c64565b91505092915050565b600060208284031215613e8e57600080fd5b6000613e9c84828501613c79565b91505092915050565b60008060408385031215613eb857600080fd5b6000613ec685828601613c64565b9250506020613ed785828601613c64565b9150509250929050565b600080600060608486031215613ef657600080fd5b6000613f0486828701613c64565b9350506020613f1586828701613c64565b9250506040613f2686828701613e29565b9150509250925092565b60008060008060808587031215613f4657600080fd5b6000613f5487828801613c64565b9450506020613f6587828801613c64565b9350506040613f7687828801613e29565b925050606085013567ffffffffffffffff811115613f9357600080fd5b613f9f87828801613d8b565b91505092959194509250565b60008060408385031215613fbe57600080fd5b6000613fcc85828601613c64565b9250506020613fdd85828601613d22565b9150509250929050565b60008060408385031215613ffa57600080fd5b600061400885828601613c64565b925050602061401985828601613e29565b9150509250929050565b6000806020838503121561403657600080fd5b600083013567ffffffffffffffff81111561405057600080fd5b61405c85828601613c8e565b92509250509250929050565b60006020828403121561407a57600080fd5b600061408884828501613d37565b91505092915050565b6000602082840312156140a357600080fd5b60006140b184828501613d4c565b91505092915050565b6000602082840312156140cc57600080fd5b60006140da84828501613d61565b91505092915050565b6000602082840312156140f557600080fd5b600061410384828501613d76565b91505092915050565b6000806020838503121561411f57600080fd5b600083013567ffffffffffffffff81111561413957600080fd5b61414585828601613db5565b92509250509250929050565b60006020828403121561416357600080fd5b600082013567ffffffffffffffff81111561417d57600080fd5b61418984828501613dff565b91505092915050565b6000602082840312156141a457600080fd5b60006141b284828501613e29565b91505092915050565b6000602082840312156141cd57600080fd5b60006141db84828501613e3e565b91505092915050565b6000806000604084860312156141f957600080fd5b600061420786828701613e29565b935050602084013567ffffffffffffffff81111561422457600080fd5b61423086828701613cd8565b92509250509250925092565b6000806040838503121561424f57600080fd5b600061425d85828601613e29565b925050602061426e85828601613e29565b9150509250929050565b6000614284838361429f565b60208301905092915050565b6142998161508e565b82525050565b6142a88161508e565b82525050565b6142bf6142ba8261508e565b615231565b82525050565b60006142d18385614f1f565b93506142dc82614edd565b8060005b85811015614315576142f28284614f62565b6142fc8882614278565b975061430783614f12565b9250506001810190506142e0565b5085925050509392505050565b61432b816150b2565b82525050565b600061433c82614efc565b6143468185614f2a565b9350614356818560208601615152565b61435f81615340565b840191505092915050565b600061437582614efc565b61437f8185614f3b565b935061438f818560208601615152565b80840191505092915050565b6143a481615131565b82525050565b60006143b582614f07565b6143bf8185614f46565b93506143cf818560208601615152565b6143d881615340565b840191505092915050565b60006143ee82614f07565b6143f88185614f57565b9350614408818560208601615152565b80840191505092915050565b6000815461442181615185565b61442b8186614f57565b9450600182166000811461444657600181146144575761448a565b60ff1983168652818601935061448a565b61446085614ee7565b60005b8381101561448257815481890152600182019150602081019050614463565b838801955050505b50505092915050565b60006144a0602083614f46565b91506144ab8261535e565b602082019050919050565b60006144c3602d83614f46565b91506144ce82615387565b604082019050919050565b60006144e6603283614f46565b91506144f1826153d6565b604082019050919050565b6000614509602683614f46565b915061451482615425565b604082019050919050565b600061452c602583614f46565b915061453782615474565b604082019050919050565b600061454f601c83614f46565b915061455a826154c3565b602082019050919050565b6000614572601383614f46565b915061457d826154ec565b602082019050919050565b6000614595602483614f46565b91506145a082615515565b604082019050919050565b60006145b8601983614f46565b91506145c382615564565b602082019050919050565b60006145db603a83614f46565b91506145e68261558d565b604082019050919050565b60006145fe601e83614f46565b9150614609826155dc565b602082019050919050565b6000614621601d83614f46565b915061462c82615605565b602082019050919050565b6000614644602683614f46565b915061464f8261562e565b604082019050919050565b6000614667601d83614f46565b91506146728261567d565b602082019050919050565b600061468a602983614f46565b9150614695826156a6565b604082019050919050565b60006146ad601283614f46565b91506146b8826156f5565b602082019050919050565b60006146d0602083614f46565b91506146db8261571e565b602082019050919050565b60006146f3600583614f57565b91506146fe82615747565b600582019050919050565b6000614716601483614f46565b915061472182615770565b602082019050919050565b6000614739602083614f46565b915061474482615799565b602082019050919050565b600061475c601883614f46565b9150614767826157c2565b602082019050919050565b600061477f602183614f46565b915061478a826157eb565b604082019050919050565b60006147a2600083614f3b565b91506147ad8261583a565b600082019050919050565b60006147c5603d83614f46565b91506147d08261583d565b604082019050919050565b60006147e8601d83614f46565b91506147f38261588c565b602082019050919050565b600061480b602a83614f46565b9150614816826158b5565b604082019050919050565b600061482e601883614f46565b915061483982615904565b602082019050919050565b6000614851601a83614f46565b915061485c8261592d565b602082019050919050565b6000614874601f83614f46565b915061487f82615956565b602082019050919050565b6000614897601783614f46565b91506148a28261597f565b602082019050919050565b60006148ba600183614f57565b91506148c5826159a8565b600182019050919050565b60006148dd601583614f46565b91506148e8826159d1565b602082019050919050565b6148fc81615127565b82525050565b600061490e82846142ae565b60148201915081905092915050565b600061492a8284866142c5565b91508190509392505050565b6000614942828461436a565b915081905092915050565b600061495982846143e3565b915081905092915050565b60006149708285614414565b915061497b826148ad565b915061498782846143e3565b9150614992826146e6565b91508190509392505050565b60006149a982614795565b9150819050919050565b60006020820190506149c86000830184614290565b92915050565b60006080820190506149e36000830187614290565b6149f06020830186614290565b6149fd60408301856148f3565b8181036060830152614a0f8184614331565b905095945050505050565b6000604082019050614a2f6000830185614290565b614a3c60208301846148f3565b9392505050565b6000602082019050614a586000830184614322565b92915050565b6000602082019050614a73600083018461439b565b92915050565b60006020820190508181036000830152614a9381846143aa565b905092915050565b60006020820190508181036000830152614ab481614493565b9050919050565b60006020820190508181036000830152614ad4816144b6565b9050919050565b60006020820190508181036000830152614af4816144d9565b9050919050565b60006020820190508181036000830152614b14816144fc565b9050919050565b60006020820190508181036000830152614b348161451f565b9050919050565b60006020820190508181036000830152614b5481614542565b9050919050565b60006020820190508181036000830152614b7481614565565b9050919050565b60006020820190508181036000830152614b9481614588565b9050919050565b60006020820190508181036000830152614bb4816145ab565b9050919050565b60006020820190508181036000830152614bd4816145ce565b9050919050565b60006020820190508181036000830152614bf4816145f1565b9050919050565b60006020820190508181036000830152614c1481614614565b9050919050565b60006020820190508181036000830152614c3481614637565b9050919050565b60006020820190508181036000830152614c548161465a565b9050919050565b60006020820190508181036000830152614c748161467d565b9050919050565b60006020820190508181036000830152614c94816146a0565b9050919050565b60006020820190508181036000830152614cb4816146c3565b9050919050565b60006020820190508181036000830152614cd481614709565b9050919050565b60006020820190508181036000830152614cf48161472c565b9050919050565b60006020820190508181036000830152614d148161474f565b9050919050565b60006020820190508181036000830152614d3481614772565b9050919050565b60006020820190508181036000830152614d54816147b8565b9050919050565b60006020820190508181036000830152614d74816147db565b9050919050565b60006020820190508181036000830152614d94816147fe565b9050919050565b60006020820190508181036000830152614db481614821565b9050919050565b60006020820190508181036000830152614dd481614844565b9050919050565b60006020820190508181036000830152614df481614867565b9050919050565b60006020820190508181036000830152614e148161488a565b9050919050565b60006020820190508181036000830152614e34816148d0565b9050919050565b6000602082019050614e5060008301846148f3565b92915050565b6000614e60614e71565b9050614e6c82826151b7565b919050565b6000604051905090565b600067ffffffffffffffff821115614e9657614e95615311565b5b614e9f82615340565b9050602081019050919050565b600067ffffffffffffffff821115614ec757614ec6615311565b5b614ed082615340565b9050602081019050919050565b6000819050919050565b60008190508160005260206000209050919050565b600081519050919050565b600081519050919050565b6000602082019050919050565b600081905092915050565b600082825260208201905092915050565b600081905092915050565b600082825260208201905092915050565b600081905092915050565b6000614f716020840184613c64565b905092915050565b6000614f8482615127565b9150614f8f83615127565b9250827fffffffffffffffffffffffffffffffffffffffffffffffffffffffffffffffff03821115614fc457614fc3615255565b5b828201905092915050565b6000614fda82615127565b9150614fe583615127565b925082614ff557614ff4615284565b5b828204905092915050565b600061500b82615127565b915061501683615127565b9250817fffffffffffffffffffffffffffffffffffffffffffffffffffffffffffffffff048311821515161561504f5761504e615255565b5b828202905092915050565b600061506582615127565b915061507083615127565b92508282101561508357615082615255565b5b828203905092915050565b600061509982615107565b9050919050565b60006150ab82615107565b9050919050565b60008115159050919050565b6000819050919050565b60007fffffffff0000000000000000000000000000000000000000000000000000000082169050919050565b6000819050615102826159fa565b919050565b600073ffffffffffffffffffffffffffffffffffffffff82169050919050565b6000819050919050565b600061513c826150f4565b9050919050565b82818337600083830152505050565b60005b83811015615170578082015181840152602081019050615155565b8381111561517f576000848401525b50505050565b6000600282049050600182168061519d57607f821691505b602082108114156151b1576151b06152e2565b5b50919050565b6151c082615340565b810181811067ffffffffffffffff821117156151df576151de615311565b5b80604052505050565b60006151f382615127565b91507fffffffffffffffffffffffffffffffffffffffffffffffffffffffffffffffff82141561522657615225615255565b5b600182019050919050565b600061523c82615243565b9050919050565b600061524e82615351565b9050919050565b7f4e487b7100000000000000000000000000000000000000000000000000000000600052601160045260246000fd5b7f4e487b7100000000000000000000000000000000000000000000000000000000600052601260045260246000fd5b7f4e487b7100000000000000000000000000000000000000000000000000000000600052602160045260246000fd5b7f4e487b7100000000000000000000000000000000000000000000000000000000600052602260045260246000fd5b7f4e487b7100000000000000000000000000000000000000000000000000000000600052604160045260246000fd5b6000601f19601f8301169050919050565b60008160601b9050919050565b7f45786365656473207072652073616c65206d696e74206d6178206e756d626572600082015250565b7f4552433732313a2063616c6c6572206973206e6f7420746f6b656e206f776e6560008201527f72206f7220617070726f76656400000000000000000000000000000000000000602082015250565b7f4552433732313a207472616e7366657220746f206e6f6e20455243373231526560008201527f63656976657220696d706c656d656e7465720000000000000000000000000000602082015250565b7f4f776e61626c653a206e6577206f776e657220697320746865207a65726f206160008201527f6464726573730000000000000000000000000000000000000000000000000000602082015250565b7f4552433732313a207472616e736665722066726f6d20696e636f72726563742060008201527f6f776e6572000000000000000000000000000000000000000000000000000000602082015250565b7f4552433732313a20746f6b656e20616c7265616479206d696e74656400000000600082015250565b7f41646472657373206e6f7420696e206c69737400000000000000000000000000600082015250565b7f4552433732313a207472616e7366657220746f20746865207a65726f2061646460008201527f7265737300000000000000000000000000000000000000000000000000000000602082015250565b7f4552433732313a20617070726f766520746f2063616c6c657200000000000000600082015250565b7f416464726573733a20756e61626c6520746f2073656e642076616c75652c207260008201527f6563697069656e74206d61792068617665207265766572746564000000000000602082015250565b7f45786365656473207075626c6963206d696e74206d6178206e756d6265720000600082015250565b7f416464726573733a20696e73756666696369656e742062616c616e6365000000600082015250565b7f416464726573733a20696e73756666696369656e742062616c616e636520666f60008201527f722063616c6c0000000000000000000000000000000000000000000000000000602082015250565b7f496e73756666696369656e7420746f6b656e732072656d61696e696e67000000600082015250565b7f4552433732313a2061646472657373207a65726f206973206e6f74206120766160008201527f6c6964206f776e65720000000000000000000000000000000000000000000000602082015250565b7f4e6f6e2d6578697374656e7420746f6b656e0000000000000000000000000000600082015250565b7f4552433732313a206d696e7420746f20746865207a65726f2061646472657373600082015250565b7f2e6a736f6e000000000000000000000000000000000000000000000000000000600082015250565b7f5072652073616c65206973206e6f74206f70656e000000000000000000000000600082015250565b7f4f776e61626c653a2063616c6c6572206973206e6f7420746865206f776e6572600082015250565b7f4552433732313a20696e76616c696420746f6b656e2049440000000000000000600082015250565b7f4552433732313a20617070726f76616c20746f2063757272656e74206f776e6560008201527f7200000000000000000000000000000000000000000000000000000000000000602082015250565b50565b7f4552433732313a20617070726f76652063616c6c6572206973206e6f7420746f60008201527f6b656e206f776e6572206f7220617070726f76656420666f7220616c6c000000602082015250565b7f416464726573733a2063616c6c20746f206e6f6e2d636f6e7472616374000000600082015250565b7f5361666545524332303a204552433230206f7065726174696f6e20646964206e60008201527f6f74207375636365656400000000000000000000000000000000000000000000602082015250565b7f496e636f7272656374204554482076616c75652073656e740000000000000000600082015250565b7f496e73756666696369656e7420746f6b656e2072657365727665000000000000600082015250565b7f5265656e7472616e637947756172643a207265656e7472616e742063616c6c00600082015250565b7f5075626c69632073616c65206973206e6f74206f70656e000000000000000000600082015250565b7f2f00000000000000000000000000000000000000000000000000000000000000600082015250565b7f41646472657373657320617272617920656d7074790000000000000000000000600082015250565b60038110615a0b57615a0a6152b3565b5b50565b615a178161508e565b8114615a2257600080fd5b50565b615a2e816150a0565b8114615a3957600080fd5b50565b615a45816150b2565b8114615a5057600080fd5b50565b615a5c816150be565b8114615a6757600080fd5b50565b615a73816150c8565b8114615a7e57600080fd5b50565b615a8a81615127565b8114615a9557600080fd5b5056fea26469706673582212201645f2e783d1d627aa6b11dde1391bdd4b2ae858626667d989cb5a2762d2d41364736f6c63430008040033",
  "linkReferences": {},
  "deployedLinkReferences": {}
}